:100000004DC081C066C065C064C063C062C061C0CD
:1000100060C05FC05EC05DC05CC05BC05AC059C0FC
:1000200058C00902120001010080C8090400000044
:10003000FF00000012011001FF00000881179F0C53
:100040000001010203011E0346004C00310038008C
:10005000460049005300500031003000580058005D
:1000600058005800200346007200650064004900F3
:10007000530050002D005500530042005400690009
:100080006E007900140346007200650064002000D1
:100090004C006100620073000403090411241FBEB8
:1000A000CFE5D2E0DEBFCDBF10E0A0E6B0E0E8E4EF
:1000B000F8E002C005900D92A236B107D9F720E012
:1000C000A2E6B0E001C01D92A53AB207E1F7A8D3BD
:1000D000B9C396CFA82FB92F80E090E041E050EA55
:1000E000609530E009C02D9182279795879510F093
:1000F00084279527305EC8F36F5FA8F30895EADF81
:100100008D939D930895CF93CFB7CF93DF93C395EE
:10011000C89BE9F7C89B0BC0C89B09C0C89B07C018
:10012000C89B05C0C89B03C0C89B01C089C06F9312
:10013000C0918800DD27C157DF4F2F9365E5C89B2D
:1001400003C02F916F91E6CF0F931F934F9320E041
:1001500040E15F9309B3017800FB27F93F9350E03A
:100160003BE039C0117840642F77012F5F5F1EC0DC
:10017000406819B311782F7752501FC0406409B3FB
:100180002F770178D1F15F5F00C023C0406219B3BF
:100190002F77117891F15F5F00C025C0017810279B
:1001A000515012F45D5F0000115027952C3F19B398
:1001B000C8F611780127015027952C3FC8F6422731
:1001C000499309B3017810274F73115027952C3F9D
:1001D000A8F64695469519B3117879F00127015094
:1001E00027952C3F98F66B5A60F3315009B3B0F65F
:1001F00000C010E41ABF002717C03B503195C31B45
:10020000D04010E41ABF0881033CF9F00B34E9F048
:10021000209186001981110F1213EDCF093651F18B
:100220000D3211F0013E39F700938D003F915F913F
:100230004F911F910F912F916F91CAB7C6FD67CF54
:10024000DF91CF91CFBFCF91189520918D002223C0
:1002500069F310918B00112339F534303AF1309362
:100260008B0020938700109188003BE0311B309376
:1002700088001CC000918B000130B4F40AE5309175
:10028000610034FD14C000936100CBE7D0E013C0DF
:10029000052710E000C000000BBB1AC0052710E0C6
:1002A000221F1DC010E021C04AE502C032ED432FDD
:1002B000C4E1D0E032E01AB31168D89A0BB31ABB8C
:1002C00051E820E865E320FF05270BBB279517952C
:1002D0001C3FF0F66695B8F7B1F720FF05270BBB7A
:1002E000279517951C3FD0F62795179517FF0527DB
:1002F00000001C3F0BBBB0F629913A9519F70E7719
:1003000010918C00110FC651D0400BBB11F010930F
:10031000860010E41ABF01601AB31E77402F4E7793
:1003200054E05A95F1F70BBB1ABB4BBB7FCFCF9371
:10033000DF9360918B00635067FDB0C080918800AF
:10034000CCE0D0E0C81BD109C157DF4F80918700B6
:100350008D3209F092C0683009F09EC083EC809322
:100360007B008AE58093610010926200888180762C
:1003700039F0CE0158D1982F8F3F09F46DC073C06A
:100380009A81109284008981811106C010928500A3
:1003900024E830E092E05BC0853019F490938C0043
:1003A00048C0863009F03FC08B81813019F484E366
:1003B00090E004C0823041F482E290E090938A00A1
:1003C0008093890092E12BC0833041F5911108C0E0
:1003D00088E990E090938A008093890094E01FC0A0
:1003E000913041F484E890E090938A0080938900F2
:1003F00094E115C0923041F484E690E090938A0035
:100400008093890090E20BC0933041F486E490E041
:1004100090938A00809389009EE101C090E080E47F
:100420008093620020C0883079F0893031F4909355
:100430008E0024E830E090E00AC091E08A3009F0B4
:1004400090E024E830E003C02EE830E091E0309303
:100450008A002093890007C0888187FD9E8180E8FB
:100460008093620007C08F81811104C08E8189173B
:1004700008F4982F909360000FC08091620087FF6E
:100480000BC0CE0184D18F3F21F48EE180936100B7
:1004900003C081111092600010928B008091610066
:1004A00084FF56C0809160008F3F09F451C0C82F6F
:1004B000893008F0C8E08C1B8093600090917B002D
:1004C00088E8892780937B00CC2389F12091620002
:1004D00027FF08C06C2F8CE790E03AD1C82F8930F5
:1004E00088F525C08091890090918A0026FF0BC075
:1004F000ACE7B0E0FC012C2F280F34913D933196EE
:100500002E13FBCF09C0DC01ECE7F0E02C2F2E0FFF
:100510003D9131932E13FCCF2FEF2C0F30E02F5F46
:100520003F4F820F931F90938A00809389006C2F16
:100530008CE790E0E4DDCC5FCC3041F08FEF80932E
:10054000600004C08FEF80936000CEE1C093610033
:1005500084E199B3917831F48150D9F710928C00ED
:1005600010928600DF91CF91089585B7826085BF94
:100570008BB780648BBF0895CF93DF93FC01DB01C1
:100580001496D99A40E050E090E02081042E01C0FA
:10059000220F0A94EAF727FDDE9A80917A00082E4E
:1005A00000C000000A94E1F7DC9A80917A00082EDE
:1005B00000C000000A94E1F7990FCD999160DC9892
:1005C000DE984F5F5F4F48305105F9F6EB01999384
:1005D000BE01D9983196CA17DB0799F6DF91CF9102
:1005E000089580917600909177009C012F5F3F4F96
:1005F00030937700209376002091730027FF02C08C
:10060000880F991F80FD286020936F00292F269561
:100610002093700096958795809371006BE670E04B
:100620008FE690E0A9CFFC018181811110C0A3E683
:10063000B0E088E08A0F91919D938A13FCCF83E606
:1006400090E090938A008093890088E00895A481C7
:10065000B0E0813059F48C918093630083E690E0A0
:1006600090938A008093890081E00895928182307E
:1006700011F49C930EC0492F477021E030E001C077
:10068000220F4A95EAF7833031F420958C91282384
:100690002C9380E00895843019F48C91282BF8CFA6
:1006A000853091F490937A008AB38A658ABB8481FD
:1006B000882329F08BB3857A8A608BBBEACF9BB302
:1006C000957A92609BBB0895863041F4DB9A8BB398
:1006D000857A8BBB8AB3857A8ABBDBCF2AB32E7728
:1006E000C1F2873069F4CF0163E670E0029644DF1F
:1006F00083E690E090938A008093890084E00895D7
:10070000883031F490937900838180937800C1CF51
:10071000248135813093770020937600893011F45D
:1007200080E212C08B3011F480EA0EC02281338146
:1007300030937500209374008A3011F480E404C073
:100740008C3009F0A6CF80EC809373008FEF089572
:10075000EF92FF921F93CF93DF931F92CDB7DEB737
:10076000182F7C018E2D811B861748F4698339DF91
:1007700080916E00F70181937F016981F3CF862F0D
:100780000F90DF91CF911F91FF90EF900895DF922E
:10079000EF92FF920F931F93CF93DF93F62EE82EE5
:1007A000EC0130E6D32E8C2F8E198F1580F58991B0
:1007B0008093720016DF80916F008D2580936F000B
:1007C00000E010E0809174009091750008171907FF
:1007D00050F76BE670E08FE690E0CEDE80916E0021
:1007E00090917200891308C090917900891721F0C7
:1007F000909178008913D7CF80917A0090E025E01E
:10080000880F991F2A95E1F7080F191FDBCF81E0A8
:10081000DF91CF911F910F91FF90EF90DF9008959E
:10082000A4DED09A80E0815041F0A895EFE9FFE086
:100830003197F1F700C00000F6CFD0987894A895D2
:0808400076DDFDCFF894FFCF37
:02084800FF5A55
:00000001FF
