:100000004DC081C066C065C064C063C062C061C0CD
:1000100060C05FC05EC05DC05CC05BC05AC059C0FC
:1000200058C00902120001010080C8090400000044
:10003000FF00000012011001FF00000881179F0C53
:100040000001010203011E0346004C00310038008C
:10005000460049005300500031003000580058005D
:1000600058005800200346007200650064004900F3
:10007000530050002D005500530042005400690009
:100080006E007900140346007200650064002000D1
:100090004C006100620073000403090411241FBEB8
:1000A000CFE5D1E0DEBFCDBF10E0A0E6B0E0EAE7EB
:1000B000F8E002C005900D92A236B107D9F720E012
:1000C000A2E6B0E001C01D92A53AB207E1F7C1D3A4
:1000D000D2C396CFA82FB92F80E090E041E050EA3C
:1000E000609530E009C02D9182279795879510F093
:1000F00084279527305EC8F36F5FA8F30895EADF81
:100100008D939D930895CF93CFB7CF93C395C89BFD
:10011000E9F7C89B09C0C89B07C0C89B05C0C89B1E
:1001200003C0C89B01C0A1C0DF93C0918800DD2738
:10013000C157DF4FC89B02C0DF91EBCF2F930F93C6
:100140001F9309B32FEF00FB20F94F933F9319B38F
:100150004FEF012700FB21F93BE031C04E7F012F1B
:1001600019B3216028C0102F4D7F2260000009B311
:1001700029C04B7F2460012F000019B32BC019B395
:10018000477F28602AC04F7E09B320612CC04F7D75
:1001900019B320622FC04F7B09B3206432C04227BD
:1001A00009B349934FEF0000102710FB20F919B352
:1001B0001178C9F1297F91F2012700FB21F909B3D8
:1001C000237F89F2315058F1102710FB22F919B31F
:1001D000277E79F2012700FB23F92F7C81F209B3F6
:1001E000102710FB24F92F7971F200C019B30127F1
:1001F00000FB25F92F7359F200C009B3102710FB3B
:1002000026F9223040F200C019B3012700FB27F97C
:10021000243028F64F77206819B30000F9CF10E496
:100220001ABF002717C03B503195C31BD04010E4C4
:100230001ABF0881033CE9F00B34D9F02091860005
:100240001981110F1213EDCF093641F10D3211F062
:10025000013E39F700938D003F914F911F910F910F
:100260002F91DF91CAB7C6FD51CFCF91CFBFCF91AC
:10027000189520918D00222379F310918B00112382
:1002800011F5343012F130938B00209387001091D8
:1002900088003BE0311B3093880017C000918B0031
:1002A00001308CF40AE53091610034FD10C00093F8
:1002B0006100CBE7D0E00FC02795A8F45150A9F416
:1002C000220F0000F9CF4AE503C042ED01C0432FE1
:1002D000C4E1D0E032E01AB31168D89A1ABB0BB36C
:1002E00020E411E85F93012756E00BBB279520F42B
:1002F000515021F4220FF9CF012756E000003B5A5C
:100300000BBBD0F2279528F4515029F4220F00009E
:10031000F9CF012756E027950BBB20F4515021F46B
:10032000220FF9CF012756E0299133230BBB21F689
:100330000E7710918C00110FC651D0400BBB11F0FD
:100340001093860010E41ABF01601AB31E77402F85
:100350004E775F9100C000C00BBB1ABB4BBB7CCF7C
:10036000CF93DF9360918B00635067FDB0C08091A5
:100370008800CCE0D0E0C81BD109C157DF4F809185
:1003800087008D3209F092C0683009F09EC083EC7E
:1003900080937B008AE580936100109262008881DF
:1003A000807639F0CE0158D1982F8F3F09F46DC077
:1003B00073C09A81109284008981811106C01092C5
:1003C000850024E830E092E05BC0853019F490931A
:1003D0008C0048C0863009F03FC08B81813019F411
:1003E00084E390E004C0823041F482E290E0909394
:1003F0008A008093890092E12BC0833041F59111EE
:1004000008C088E990E090938A008093890094E086
:100410001FC0913041F484E890E090938A0080936B
:10042000890094E115C0923041F484E690E0909305
:100430008A008093890090E20BC0933041F486E4F7
:1004400090E090938A00809389009EE101C090E043
:1004500080E48093620020C0883079F0893031F4E4
:1004600090938E0024E830E090E00AC091E08A305A
:1004700009F090E024E830E003C02EE830E091E09D
:1004800030938A002093890007C0888187FD9E8170
:1004900080E88093620007C08F81811104C08E8143
:1004A000891708F4982F909360000FC08091620024
:1004B00087FF0BC0CE0184D18F3F21F48EE1809362
:1004C000610003C081111092600010928B00809136
:1004D000610084FF56C0809160008F3F09F451C0D5
:1004E000C82F893008F0C8E08C1B80936000909181
:1004F0007B0088E8892780937B00CC2389F12091B9
:10050000620027FF08C06C2F8CE790E03AD1C82F1B
:10051000893088F525C08091890090918A0026FF56
:100520000BC0ACE7B0E0FC012C2F280F34913D93B9
:1005300031962E13FBCF09C0DC01ECE7F0E02C2F45
:100540002E0F3D9131932E13FCCF2FEF2C0F30E067
:100550002F5F3F4F820F931F90938A0080938900F3
:100560006C2F8CE790E0CBDDCC5FCC3041F08FEF8F
:100570008093600004C08FEF80936000CEE1C09351
:10058000610084E199B3917831F48150D9F71092E8
:100590008C0010928600DF91CF91089585B782601C
:1005A00085BF8BB780648BBF0895CF93DF93FC0129
:1005B000DB011496D99A40E050E090E02081042EAF
:1005C00001C0220F0A94EAF727FDDE9A80917A0093
:1005D000082E00C000000A94E1F7DC9A80917A00AE
:1005E000082E00C000000A94E1F7990FCD999160A0
:1005F000DC98DE984F5F5F4F48305105F9F6EB010C
:100600009993BE01D9983196CA17DB0799F6DF9105
:10061000CF91089580917600909177009C012F5F93
:100620003F4F30937700209376002091730027FF8F
:1006300002C0880F991F80FD286020936F00292F2A
:1006400026952093700096958795809371006BE6B0
:1006500070E08FE690E0A9CFFC018181811110C08C
:10066000A3E6B0E088E08A0F91919D938A13FCCFB6
:1006700083E690E090938A008093890088E0089553
:10068000A481B0E0813059F48C918093630083E6BB
:1006900090E090938A008093890081E00895928190
:1006A000823011F49C930EC0492F477021E030E056
:1006B00001C0220F4A95EAF7833031F420958C91DE
:1006C00028232C9380E00895843019F48C91282BF2
:1006D000F8CF853091F490937A008AB38A658ABB0B
:1006E0008481882329F08BB3857A8A608BBBEACF1B
:1006F0009BB3957A92609BBB0895863041F4DB9A58
:100700008BB3857A8BBB8AB3857A8ABBDBCF2AB35E
:100710002E77C1F2873069F4CF0163E670E002966C
:1007200044DF83E690E090938A008093890084E020
:100730000895883031F49093790083818093780014
:10074000C1CF2481358130937700209376008930A2
:1007500011F480E212C08B3011F480EA0EC02281C5
:10076000338130937500209374008A3011F480E453
:1007700004C08C3009F0A6CF80EC809373008FEF1B
:100780000895EF92FF921F93CF93DF931F92CDB7FF
:10079000DEB7182F7C018E2D811B861748F46983E4
:1007A00039DF80916E00F70181937F016981F3CF7A
:1007B000862F0F90DF91CF911F91FF90EF900895BA
:1007C000DF92EF92FF920F931F93CF93DF93F62E5A
:1007D000E82EEC0130E6D32E8C2F8E198F1580F584
:1007E00089918093720016DF80916F008D25809330
:1007F0006F0000E010E08091740090917500081780
:10080000190750F76BE670E08FE690E0CEDE80913E
:100810006E0090917200891308C090917900891739
:1008200021F0909178008913D7CF80917A0090E0E1
:1008300025E0880F991F2A95E1F7080F191FDBCFD4
:1008400081E0DF91CF911F910F91FF90EF90DF90AA
:100850000895A4DED09A80E0815041F0A895E7EB9E
:10086000FBE03197F1F700C00000F6CFD098789404
:0A087000A89576DDFDCFF894FFCFC8
:02087A00FF5A23
:00000001FF
